:100000000C9495170C94D5170C94D5170C94D51700
:100010000C94D5170C94D5170C94D5170C94D517B0
:100020000C94D5170C94D5170C94D5170C94D517A0
:100030000C94D5170C94D5170C94D5170C94D51790
:100040000C94D5170C942A8B0C94D5170C94D517B7
:100050000C94D5170C94A3850C94D5170C94B9E780
:100060000C94D5170C946C3F0C94623F0C94D517EC
:100070000C94D5170C94D5170C94D5170C94D51750
:100080000C94F8370C94D5170C94D5170C94D517FD
:100090000C94D5170C94D5170C94D5170C94D51730
:1000A0000C94D5170C94D5170C94CA370C94D5170B
:1000B0000C94D5170C94D5170C94D5170C94D51710
:1000C0000C94D5170C94D5170C94D5170C94D51700
:1000D0000C94D5170C94D5170C94D5170C94D517F0
:1000E0000C94D517084AD73B3BCE016E84BCBFFDAC
:1000F000C12F3D6C74319ABD56833DDA3D00C77FF8
:1001000011BED9E4BB4C3E916BAAAABE0000008090
:100110003F05A84CCDB2D44EB93836A9020C50B91F
:10012000918688083CA6AAAA2ABE000000803F004B
:100130004E414E494E495459494E46CDCCCC3D0ACC
:10014000D7233C17B7D13877CC2B329595E6241FAF
:10015000B14F0A000020410000C84200401C462068
:10016000BCBE4CCA1B0E5AAEC59D7400407A10F33B
:100170005A00A0724E18090010A5D4E80000E876D5
:1001800048170000E40B54020000CA9A3B0000002C
:10019000E1F505000080969800000040420F000045
:1001A00000A08601000000102700000000E8030006
:1001B0000000006400000000000A000000000001D0
:1001C00000000000002C76D888DC674F0823DFC1D0
:1001D000DFAE59E1B1B796E5E3E453C63AE651998B
:1001E0007696E8E6C28426EB898C9B62ED407C6FB4
:1001F000FCEFBC9C9F40F2BAA56FA5F490055A2A6B
:10020000F75C936B6CF9676DC11BFCE0E40D47FE76
:10021000F520E6B500D0ED902E030094357705006B
:1002200080841E080000204E0A000000C80C3333F2
:1002300033330F986E12831141EF8D2114893BE601
:100240005516CFFEE6DB18D1844B381BF77C1D908A
:100250001DA4BBE424203284725E228100C9F124F3
:10026000ECA1E53D27434F4D4D554E49434154497F
:100270004F4E0044525952554E004552524F525320
:1002800000494E464F004543484F0053544F50508D
:1002900045442E20005072696E7465722073746F2D
:1002A000707065642064756520746F206572726F6C
:1002B00072732E2046697820746865206572726FAB
:1002C0007220616E6420757365204D393939207450
:1002D0006F20726573746172742E202854656D707E
:1002E00065726174757265206973207265736574D7
:1002F0002E205365742069742061667465722072C3
:10030000657374617274696E67290A004E6F2043C9
:100310006865636B73756D2077697468206C696EAE
:1003200065206E756D6265722C204C617374204C73
:10033000696E653A20004E6F20436865636B737584
:100340006D2077697468206C696E65206E756D62CA
:1003500065722C204C617374204C696E653A2000E4
:10036000636865636B73756D206D69736D6174632C
:10037000682C204C617374204C696E653A20004CE7
:10038000696E65204E756D626572206973206E6FAF
:1003900074204C617374204C696E65204E756D62DB
:1003A00065722B312C204C617374204C696E653A58
:1003B00020004D3131300053657269616C207374D7
:1003C00061747573206D69736D617463680A00539D
:1003D000442072656164206572726F720A004B4935
:1003E0004C4C20627574746F6E2F70696E0A002118
:1003F00021204B494C4C2063617573656420627900
:100400002000746F6F206D75636820696E6163747E
:100410006976652074696D65202D2063757272653B
:100420006E7420636F6D6D616E643A20002121202F
:100430004B494C4C206361757365642062792000E0
:10044000627573793A2070617573656420666F72A6
:1004500020696E7075740A00627573793A20706154
:100460007573656420666F7220757365720A006229
:100470007573793A2070726F63657373696E670A7A
:10048000004D656469612052656D6F766564004D4D
:100490006564696120496E73657274656400506CAF
:1004A00065617365205265736574005052494E54FE
:1004B00045522048414C5445440025533A20255389
:1004C000004B494C4C45442E20005072696E7465B7
:1004D000722068616C7465642E206B696C6C2829CD
:1004E0002063616C6C6564210A00006563686F3A83
:1004F000004572726F723A004F4646004F4E0042FE
:10050000696C696E656172204C6576656C696E67B1
:1005100020477269643A0A0050726F62696E672000
:10052000506F696E740025532025692F2569002EB0
:100530000A002F0050726F62696E67206D657368E4
:1005400020706F696E742000202844525952554E15
:100550002900473239204175746F20426564204C70
:100560006576656C696E67003F20284C2C522C46DE
:100570002C4229206F7574206F6620626F756E643F
:10058000732E0A003F2856296572626F7365206CCE
:100590006576656C20696D706C61757369626C65F8
:1005A0002028302D34292E0A00426164205A2076FA
:1005B000616C75650A004E6F2062696C696E6561D9
:1005C0007220677269640A004163637572616379BE
:1005D0002044656372656173696E672100446563D9
:1005E00072656173696E67204163637572616379D7
:1005F0002044657465637465642E0A004732385A76
:100600000041636375726163793A2000206F662050
:100610000044696420004733342061626F7274655E
:10062000642E0A00416363757261637920416368D7
:1006300069657665640054617267657420616363FF
:1006400075726163792061636869657665642E0AF5
:1006500000313A323D2573000A5A322D5A313D009D
:1006600050726F62696E67204661696C6564005004
:10067000726F62696E67206661696C65640A004723
:10068000333420497465726174696F6E3A2025694C
:10069000000A47333420497465726174696F6E3A99
:1006A00020003F2841296D706C6966696361746937
:1006B0006F6E206F7574206F6620626F756E647345
:1006C0002028302E352D322E30292E0A003F285476
:1006D0002961726765742061636375726163792053
:1006E0006F7574206F6620626F756E64732028309A
:1006F0002E30312D312E30292E0A003F2849297401
:1007000065726174696F6E206F7574206F66206208
:100710006F756E64732028312D3330292E0A002026
:10072000204D3432322053005A204175746F2D41D0
:100730006C69676E0020204D36363600456E647356
:10074000746F702061646A7573746D656E740020D7
:10075000440020204D32303020530020284469735B
:1007600061626C6564293A0046696C616D656E74FE
:100770002073657474696E67730020204D323031C8
:100780002058004D617820416363656C6572617427
:10079000696F6E2028756E6974732F73322900207B
:1007A000204D3230332058004D61782066656564F5
:1007B00072617465732028756E6974732F732900D4
:1007C00020520020204D32303420500041636365B8
:1007D0006C65726174696F6E2028756E6974732F11
:1007E0007332292028503C7072696E742D616363E6
:1007F000656C3E20523C726574726163742D616356
:1008000063656C3E20543C74726176656C2D616347
:1008100063656C3E2900204A0020540020530020CC
:10082000204D323035204200416476616E6365644C
:100830002028423C6D696E5F7365676D656E745FFD
:1008400074696D655F75733E20533C6D696E5F66BC
:10085000656564726174653E20543C6D696E5F74B9
:10086000726176656C5F66656564726174653E2071
:100870004A3C6A756E635F6465763E2900204400D9
:1008800020490020204D333031205000486F7465DE
:100890006E6420504944003B200020496E76616C14
:1008A00069642065787472756465722000536C65A4
:1008B00065702E2E2E004732384C30005A20507270
:1008C0006F626520506173742042656400205A3A5B
:1008D000200020593A200042656420583A20004DFB
:1008E00065736820706F696E74206F7574206F6611
:1008F0002072616E67650A00436C69636B20746FD8
:1009000020526573756D652E2E2E004E6F204D6F33
:1009100076652E00456E642066696C65206C69738F
:10092000740A00426567696E2066696C65206C69AF
:1009300073740A004E6F206D656469610A00286E49
:100940006F2066696C65290043757272656E74204C
:1009500066696C653A20004E6F74205344207072B3
:10096000696E74696E670A005344207072696E7410
:10097000696E67206279746520002E0A0044656CF8
:100980006574696F6E206661696C65642C204669C8
:100990006C653A200046696C652064656C65746519
:1009A000643A002569730025696D20256973002567
:1009B00069682025696D20256973002569642025F3
:1009C00069682025696D20256973002569792025CE
:1009D0006964202569682025696D202569730050A8
:1009E00072696E742074696D653A20006F6B006FD8
:1009F000666600860281027A0273026502444542FD
:100A000055473A004D3131322053687574646F7721
:100A10006E004D3131332053003344205072696EE3
:100A2000746572204F46462E00434F4E4649475F3D
:100A30004558504F5254004D4541545041434B008E
:100A4000434F4F4C45525F54454D504552415455CC
:100A50005245004348414D4245525F54454D504533
:100A60005241545552450042414259535445505009
:100A7000494E470041524353004D4F54494F4E5F3A
:100A80004D4F44455300544845524D414C5F5052E0
:100A90004F54454354494F4E00455854454E4445E4
:100AA000445F4D323000435553544F4D5F464952D9
:100AB0004D574152455F55504C4F4144004C464EB6
:100AC0005F5752495445004C4F4E475F46494C458D
:100AD0004E414D45004155544F5245504F52545F81
:100AE00053445F5354415455530053445F57524944
:100AF000544500524550454154004D554C54495FB2
:100B0000564F4C554D4500534443415244005052BA
:100B10004F4D50545F535550504F525400484F530F
:100B2000545F414354494F4E5F434F4D4D414E44F6
:100B30005300454D455247454E43595F504152532E
:100B4000455200434153455F4C494748545F425228
:100B5000494748544E45535300544F47474C455F0F
:100B60004C494748545300534F4654574152455FF0
:100B7000504F574552004255494C445F50455243EF
:100B8000454E54004C4556454C494E475F444154F0
:100B900041005A5F50524F42450052554E4F5554F6
:100BA000004155544F4C4556454C005052494E5407
:100BB0005F4A4F420050524F4752455353004155F0
:100BC000544F5245504F52545F54454D500041557B
:100BD000544F5245504F52545F504F5300564F4C54
:100BE000554D455452494300454550524F4D0042E2
:100BF000494E4152595F46494C455F5452414E530C
:100C00004645520053455249414C5F584F4E5F583C
:100C10004F4646004649524D574152455F4E414D61
:100C2000453A4D61726C696E20322E312E322E3172
:100C30002028417567203130203230323320313561
:100C40003A35313A34302920534F555243455F43AA
:100C50004F44455F55524C3A6769746875622E631C
:100C60006F6D2F4D61726C696E4669726D7761723E
:100C7000652F4D61726C696E2050524F544F434F37
:100C80004C5F56455253494F4E3A312E30204D411C
:100C90004348494E455F545950453A3344205072B9
:100CA000696E7465722045585452554445525F43ED
:100CB0004F554E543A3120555549443A6365646561
:100CC000326132662D343161322D343734382D396A
:100CD0006231322D633535633632663336376666B8
:100CE000002F2F004D31343520533C696E646578F8
:100CF0003E206F7574206F662072616E67652028D4
:100D0000302D31290A003F4A206F7574206F66200C
:100D100072616E67652028302E303120746F20306C
:100D20002E33290A0020580020204D61783A2000F7
:100D3000200020204D696E3A2000203B200020201A
:100D40004D323131205300536F667420656E6473E9
:100D5000746F707300250A0046523A0020466C6F8B
:100D6000773A20003A200020536572766F200020E9
:100D70006F7574206F662072616E67650A00536537
:100D800072766F200064697300656E0043290A0063
:100D900061626C656420286D696E2074656D7020D9
:100DA00000436F6C642065787472756465732061AC
:100DB000726520004F46460A00466164652048651A
:100DC000696768742000426564204C6576656C69CB
:100DD0006E6720004661696C656420746F20656EE3
:100DE00061626C6520426564204C6576656C696E55
:100DF000670A00496E76616C6964206D6573682EC0
:100E00000A004D34323120696E636F72726563740B
:100E100020706172616D65746572207573616765BC
:100E20000A004D65736820706F696E74206F757469
:100E3000206F662072616E67650A004F6666736593
:100E40007473204170706C696564004572723A2059
:100E5000546F6F206661722100546F6F206661725B
:100E60002066726F6D207265666572656E636520BF
:100E7000706F696E740A00454550524F4D20646989
:100E80007361626C65640A00290A0020746F200097
:100E90003F5A206F7574206F662072616E676520FF
:100EA0002800290A0020746F20003F59206F7574B4
:100EB000206F662072616E676520282D00290A0068
:100EC00020746F20003F58206F7574206F66207269
:100ED000616E676520282D003F285929206F7574A1
:100EE000206F6620626F756E64732E0A003F28586B
:100EF00029206F7574206F6620626F756E64732E83
:100F00000A0020696E64657820696E76616C696498
:100F10002028312E2E32292E0A003F285329205016
:100F2000726F62652D706F736974696F6E003F2810
:100F300053292069732072657175697265642E0A80
:100F4000004D383400446F6E65207072696E7469AC
:100F50006E672066696C650A004D3737004D333186
:100F600000496E76616C6964206578747275646599
:100F7000720A0020204D323036205800486F6D65CF
:100F8000206F6666736574004361703A0047322FC4
:100F900047332062616420706172616D65746572AF
:100FA000730A00203B0020204D3835312058005A6C
:100FB0002D50726F6265204F66667365740020570E
:100FC0003A00436F6F6C696E672E2E2E00453120FC
:100FD00025530020573A0042656420436F6F6C69C7
:100FE0006E672E2E2E004265642048656174696E1E
:100FF000672E2E2E00206661696C65642120426197
:1010000064206865617465722069640A005049440F
:10101000204175746F74756E650023646566696E32
:10102000652044454641554C545F004B6420004BBD
:101030006920004B7020002066696E6973686564E2
:10104000212050757420746865206C617374204B86
:10105000702C204B6920616E64204B6420636F6E9E
:101060007374616E74732066726F6D2062656C6F4D
:101070007720696E746F20436F6E66696775726161
:1010800074696F6E2E680A00504944204175746F70
:1010900074756E6500206661696C656421207469F1
:1010A0006D656F75740A00504944204175746F7402
:1010B000756E6500206661696C6564212054656DFC
:1010C000706572617475726520746F6F20686967EE
:1010D000680A00504944204175746F74756E65004C
:1010E000504944204379636C65730025532025697A
:1010F0002F256900204B643A2000204B693A2000DC
:10110000204B703A200020436C6173736963205058
:101110004944200A002054753A2000204B753A209B
:1011200000206D61783A2000206D696E3A20002021
:10113000643A200020626961733A20004865617456
:10114000696E672E2E2E002073746172740A00502F
:101150004944204175746F74756E6500206661693D
:101160006C6564212054656D70657261747572657B
:1011700020746F6F20686967680A005049442041F5
:1011800075746F74756E6500504944204175746FB5
:1011900074756E65004572723A2075746638206603
:1011A0006F6E74206E6F7420696E697469616C690A
:1011B0007A65642E004572723A207574663820662E
:1011C0006F6E74206E6F7420696E697469616C69EA
:1011D0007A65642E004572723A207574663820660E
:1011E0006F6E74206E6F7420696E697469616C69CA
:1011F0007A65642E0020003A003A002568753A2589
:10120000303268750025303268753A25303268759D
:1012100000253032687527253032687500256875DD
:10122000642025303268753A253032687500426591
:101230006400456E636C6F73757265004500200035
:1012400025002020202020202000202020200065B4
:101250007272001FE020102010201010201020209B
:1012600010201030300840048003001FE03FF03FA2
:10127000F03FF01FE01FE03FF03FF03FF00FC007EE
:101280008003003FFFF038007030FC3020FC10205D
:1012900078102030102C00D02E31D02F7BD02F7B17
:1012A000D02E31D02C00D020301020781020FC100F
:1012B00030FC303800703FFFF03FFFF038007031F5
:1012C00086302387102787902F87D02F03D0203098
:1012D000102078102078102030102F03D02F87D0C6
:1012E0002787902387103186303800703FFFF01F2A
:1012F000FFF81FFFF8041040020820020820041025
:101300004008208010410010410008208004104057
:101310000000001FFFF81FFFF8000C0F00FE07027F
:101320002503BB017FFE08FE08FE05080806000035
:1013300040F0C88888987810050808060000C0F8B2
:101340008888888888F80505050600012030F8306F
:10135000200508080600002070F820202020E00565
:1013600009090600FF2070A8A8B888887020070522
:1013700005070001D86C366CD80509090600FFF88E
:10138000A88888888888A8F8050A0A0600FE2050E0
:1013900050505088A8A8887003030306000340A09B
:1013A00040FFFFFFFFFFFFFFFFFFFFFFFFFFFFFF0C
:1013B000FFFFFFFFFFFFFF0000000605FF0107071B
:1013C0000602008080808080008003030306010500
:1013D000A0A0A005060606000050F85050F85005E1
:1013E00009090600FF2070A8A07028A87020050732
:1013F00007060000C8C81020409898050707060097
:101400000040A0A040A89068010303060205808068
:10141000800309090601FF20404080808040402071
:101420000309090601FF804040202020404080053C
:10143000070706000020A8702070A82005050506F3
:1014400000012020F820200203030601FFC0408095
:10145000050101060003F8020202060100C0C005F2
:101460000707060000081010204040800507070607
:101470000000708898A8C88870030707060100401C
:10148000C040404040E00507070600007088081093
:101490002040F8050707060000F80810300888709B
:1014A00005070706000010305090F81010050707D8
:1014B000060000F880F0080888700507070600009D
:1014C000304080F0888870050707060000F8081093
:1014D0001020202005070706000070888870888883
:1014E00070050707060000708888780810600205FC
:1014F00005060100C0C000C0C00206060601FFC00C
:10150000C000C04080030505060101204080402046
:10151000050303060002F800F80305050601018033
:10152000402040800507070600007088102020003A
:10153000200507070600007088B8A8B88070050766
:1015400007060000708888F8888888050707060065
:1015500000F04848704848F005070706000070880A
:101560008080808870050707060000F048484848DA
:1015700048F0050707060000F88080F08080F80535
:101580000707060000F88080F080808005070706C6
:101590000000708880809888700507070600008822
:1015A0008888F8888888030707060100E0404040E3
:1015B0004040E0050707060000381010101090604A
:1015C0000507070600008890A0C0A09088050707BF
:1015D000060000808080808080F8050707060000F4
:1015E00088D8A8888888880507070600008888C8E2
:1015F000A89888880507070600007088888888886A
:1016000070050707060000F08888F08080800507D5
:101610000706000070888888A890680507070600FC
:1016200000F08888F0A09088050707060000708801
:101630008070088870050707060000F82020202029
:10164000202005070706000088888888888870059C
:10165000070706000088888888505020050707067D
:10166000000088888888A8A8500507070600008819
:101670008850205088880507070600008888502079
:10168000202020050707060000F80810204080F8F9
:101690000309090601FFE080808080808080E005EA
:1016A00007070600008040402010100803090906C3
:1016B00001FFE020202020202020E0050303060079
:1016C000052050880501010600FEF803030306010A
:1016D000058040200505050600007008788878051B
:1016E00007070600008080F0888888F00505050659
:1016F00000007080808870050707060000080878E1
:10170000888888780505050600007088F0807005D7
:101710000707060000304840E04040400507070644
:1017200000FE70888888780870050707060000802A
:1017300080F0888888880307070601004000C040C1
:101740004040E00409090601FE100030101010109E
:10175000906005070706000080808890E09088036D
:101760000707060100C04040404040E0050505066F
:101770000000D0A8A8A8A8050505060000B0C888E4
:1017800088880505050600007088888870050707A9
:101790000600FEF0888888F080800507070600FEB6
:1017A00078888888780808050505060000B0C88094
:1017B000808005050506000078807008F0050707A1
:1017C0000600002020F8202020180505050600004E
:1017D0008888889868050505060000888888502054
:1017E0000505050600008888A8A85005050506001F
:1017F0000088502050880507070600FE888888501A
:10180000204080050505060000F8102040F8030977
:10181000090601FF20404040804040402001090966
:101820000602FF8080808080808080800309090616
:1018300001FF8040404020404040800503030600F7
:101840000248A890FF41425300504C410050726939
:101850006E742041626F72746564004D32350050C1
:10186000617573696E672E2E2E004D323400466905
:101870006C2E204469612E004520696E206D6D5EDE
:10188000330020082046616374002008204D6178F1
:10189000002008204D696E004F6666004F6E0041C3
:1018A00075746F74656D70004D696E205472617649
:1018B000656C205370656564004D696E2056656CDB
:1018C0006F63697479004D617820402053706565BD
:1018D00064004D6178204520416363656C004D6173
:1018E00078204020416363656C0054726176656CBA
:1018F00020416363656C00526574726163742041BA
:101900006363656C00416363656C0050726F626570
:10191000205A204F66667365740050726F626520AE
:1019200059204F66667365740050726F6265205867
:10193000204F666673657400402073746570732F62
:101940006D6D00416476616E6365642053657474E7
:10195000696E6773004D3432380046696C616D659D
:101960006E740054656D70657261747572650053B4
:10197000746570732F6D6D0050726F6265204F66D5
:101980006673657473004A756E6374696F6E204484
:10199000657600416363656C65726174696F6E00A2
:1019A0004D617820537065656420286D6D2F732913
:1019B0000053657420486F6D65204F6666736574CB
:1019C0007300436F6E66696775726174696F6E004C
:1019D00053572D4D6F64650053746F7700446570E5
:1019E0006C6F790053656C662D5465737400526595
:1019F00073657400426564004E6F7A7A6C650046C8
:101A0000616E20537065656400436F6E666967752B
:101A1000726174696F6E00526573746F72652044F1
:101A2000656661756C7473005072656865617420D9
:101A30002420436F6E6600424C546F7563680050FB
:101A4000726F6265205A204F666673657400416448
:101A500076616E6365642053657474696E677300A4
:101A60004D61696E003F004261636B0053746F709B
:101A7000004E6F204D65646961005072696E74207C
:101A800066726F6D204D65646961004368616E67C1
:101A900065204D65646961004D323100436F6E66AB
:101AA000696775726174696F6E0054656D706572F7
:101AB0006174757265004D6F74696F6E0052657365
:101AC000756D65205072696E740054756E650053B3
:101AD000746F70205072696E740050617573652068
:101AE0005072696E7400496E666F2053637265654B
:101AF0006E003F005374617274205072696E7400FE
:101B000043616E63656C005072696E740043616E70
:101B10006E6F7420656E746572207375626469728D
:101B20003A200002202E2E004D61696E00210048EF
:101B30006F74656E6420746F6F20636F6C64004215
:101B400061636B0050726F63656564004D6F76650D
:101B5000204578747275646572004D6F74696F6E9C
:101B60000044697361626C652053746570706572BE
:101B700073004D38340046616465204865696768C4
:101B800074004F6666004F6E00426564204C6576B7
:101B9000656C696E67004C6576656C204265640013
:101BA0004732394E0053746F77205A2D50726F624E
:101BB00065004D343032004465706C6F79205A2DC9
:101BC00050726F6265004D343031004175746F2082
:101BD0005A2D416C69676E00473334004175746F4C
:101BE00020486F6D6500473238004D61696E0050C6
:101BF00072656865617420242042656400507265D6
:101C000068656174202420456E640054656D7065BC
:101C10007261747572650049184518436F6F6C6482
:101C20006F776E00507265686561742024004661AC
:101C30006E20537065656400426564004E6F7A7A69
:101C40006C65004D61696E00466C6F770046616E91
:101C500020537065656400426564004E6F7A7A6C4B
:101C600065005370656564004D61696E006F706555
:101C70006E00545249474745524544003A20007A85
:101C80005F70726F6265007A325F6D696E007A5FB5
:101C90006D696E00795F6D696E00785F6D696E00C9
:101CA0005265706F7274696E6720656E6473746FCD
:101CB00070207374617475730A0020746F6F206CE8
:101CC0006F6E6720657874727573696F6E207072BD
:101CD0006576656E7465640A0020636F6C642065C8
:101CE0007874727573696F6E2070726576656E7444
:101CF00065640A000000A0C00000000000000000B1
:101D00005761726E696E673A20486F6D696E672021
:101D100042756D702044697669736F72203C203182
:101D20000A000202040080984300009643000096D7
:101D3000430000A0400000A0400000004053544F6A
:101D4000505045442E20005072696E7465722073A5
:101D5000746F707065642064756520746F2065729F
:101D6000726F72732E2046697820746865206572E0
:101D7000726F7220616E6420757365204D39393938
:101D800020746F20726573746172742E20285465FC
:101D90006D70657261747572652069732072657308
:101DA00065742E20536574206974206166746572B1
:101DB0002072657374617274696E67290A00206508
:101DC00072726F72202D2072657374617274207745
:101DD000697468204D3939390A00424C546F756373
:101DE000680021212053544F502063616C6C65645E
:101DF0002062656361757365206F66200000009640
:101E00004300009643000096430000A0C00000007D
:101E1000000000000048617264636F6465642044E0
:101E2000656661756C742053657474696E677320A0
:101E30004C6F616465640000004843000048430043
:101E4000002042000048430000A0420000A04200E1
:101E500000C8431414C443DC050000DC050000C8BE
:101E60000000001027000020286D6D2900203B2075
:101E70004C6576656C696E67200020204D343230E9
:101E80002053004175746F20426564204C6576656F
:101E90006C696E6700204600204200204800202028
:101EA0004D3134352053004D6174657269616C2089
:101EB00068656174757020706172616D65746572BA
:101EC0007300204A00202047323920572049002043
:101ED000204D3134392043203B20556E69747320E6
:101EE000696E2043656C736975730A0054656D7083
:101EF0006572617475726520556E69747300202077
:101F0000473231203B004C696E65617220556E6925
:101F1000747300423A0020436F756E7420413A009A
:101F2000426564004531004500626564002C207301
:101F3000797374656D2073746F70706564212048C7
:101F400065617465725F49443A20004572723A20B7
:101F50004D415854454D50004D415854454D502029
:101F60007472696767657265640048656174696E5B
:101F700067204661696C65640048656174696E67D5
:101F8000206661696C6564004572723A204D494E65
:101F900054454D50004D494E54454D502074726982
:101FA00067676572656400544845524D414C205244
:101FB000554E4157415900546865726D616C20520D
:101FC000756E6177617900202F002042403A002031
:101FD000403A007C3C3E5E2B3D3F2F5B5D3B2C2A14
:101FE000225C004D6564696120496E697420466118
:101FF000696C0053442063617264206F6B0A006F48
:1020000070656E526F6F74206661696C65640A005A
:10201000766F6C756D652E696E6974206661696C8A
:1020200065640A004E6F20534420636172640A00A5
:10203000534420636172642072656C6561736564EA
:102040000A000A4D3234004D3233202573002E0A27
:10205000006F70656E206661696C65642C2046694E
:102060006C653A200046696C652073656C65637425
:1020700065640A002053697A653A200046696C65F8
:10208000206F70656E65643A2000454E44205355BC
:1020900042524F5554494E450A002220706F73003A
:1020A0002220706172656E743A2200535542524F7D
:1020B0005554494E452043414C4C2074617267652C
:1020C000743A220053756263616C6C204F766572BE
:1020D000666C6F77004578636565646564206D6143
:1020E0007820535542524F5554494E4520646570EF
:1020F00074683A0057726974696E6720746F20665D
:10210000696C653A2000667265736800646F696E79
:1021100067002066696C653A20004E6F7720002FBB
:102120006175746F25632E67006D61726C696E66F0
:10213000772E6F726700322E312E322E31001FFF44
:10214000FFFFFFFFFF600000000001FF40000000F4
:102150000000FF8000000000007F83CF00000C30F3
:102160003F87FF80000C301F867980000C000F8CA9
:1021700030C7838C30E78C30CFC7CC31F38C30DC68
:10218000ECEC33B98C30D86C6C33198C30D06C0CCF
:1021900033198C30D86C0C33198C30DC6C0E3B1935
:1021A0008C30CF7C079F198C30C77C038F1940007F
:1021B0000000000002600000000000061FFFFFFF9B
:1021C000FFFFF870012C0190012701B0012201C02E
:1021D000011D01F00118011002130130020E01600F
:1021E00002090190020401C002FF000003FA00404E
:1021F00003F5008003F000D003EB002004E600703C
:1022000004E100E004DC004005D700C005D2004036
:1022100006CD00D006C8008007C3003008BE00F01D
:1022200008B900C009B400B00AAF00B00BAA00D0D2
:102230000CA500000EA000500F9B00C0109600508F
:1022400012910000148C00C0158700B0178200B0F6
:10225000197D00D01B7800001E730040206E009096
:10226000226900F024640040275F0090295A00E0B2
:102270002B5500102E500020304B0010324600E04D
:1022800033410090353C001037370070383200A0E1
:10229000392D00B03A2800A03B2300603C1E0010FE
:1022A0003D1900903D1400103E0F00703E0A00C022
:1022B0003E0500003F0000403FFBFF803FF6FFC0AF
:1022C0003FF1FF2020506C616E6E6572427566664C
:1022D000657242797465733A200020467265652004
:1022E0004D656D6F72793A200020436F6D70696C97
:1022F00065643A2041756720313020323032330A2C
:1023000000204C61737420557064617465643A20D8
:10231000323032332D30352D3136207C20417574EA
:10232000686F723A20286E6F6E652C206465666156
:10233000756C7420636F6E666967290A004D61725F
:102340006C696E20322E312E322E310A0020536FEE
:102350006674776172652052657365740A00205750
:1023600061746368646F672052657365740A002046
:1023700042726F776E206F75742052657365740AB0
:10238000002045787465726E616C205265736574C7
:102390000A00506F77657255700A00737461727429
:1023A0000A004732385859004D31303031006F6BD8
:1023B000006572726F722077726974696E6720743B
:1023C0006F2066696C650A00446F6E6520736176E4
:1023D000696E672066696C652E0A004D32390045CA
:1023E0006E6473746F70730025532025632025631A
:1023F0002025632025630020503A00205A3A00200F
:10240000593A0020583A00656E6473746F707320F7
:102410006869743A200000000A0B02090C0D0E08CE
:10242000070304010000000000000000000000009D
:10243000000000000000000000000000000000009C
:102440000000121110000000000000000000000059
:1024500000000000000000000000000024F404D987
:10246000201BC40C5C0E9804C4095F02650771014F
:10247000F405F900FB04B30048048700C1036900B8
:102480005803550003034500BE023A0084023100A0
:1024900053022A002902250004022000E4011C0046
:1024A000C8011900AF01170098011400840113003E
:1024B000710110006101100051010E0043010D0077
:1024C00036010B002B010B0020010B001501090048
:1024D0000C01090003010800FB000800F3000800DC
:1024E000EB000700E4000600DE000600D80006004E
:1024F000D2000600CC000500C7000500C2000500A0
:10250000BD000400B9000400B5000400B1000400DF
:10251000AD000400A9000400A5000300A200030010
:102520009F0004009B000300980003009500020038
:1025300093000300900003008D0002008B00030055
:10254000880002008600020084000300810002006F
:102550007F0002007D0002007B0002007900020083
:102560007700010076000200740002007200010092
:10257000710002006F0002006D0001006C0002009B
:102580006A000100690002006700010066000100A6
:1025900065000100640002006200010061000100AA
:1025A000600001005F0002005D0001005C000100AE
:1025B0005B0001005A0001005900010058000100B1
:1025C00057000100560001005500010054000100B1
:1025D00053000000530001005200010051000100AF
:1025E000500001004F0001004E0000004E000100AD
:1025F0004D0001004C0001004B0000004B000100A9
:102600004A000100490001004800000048000100A4
:1026100047000100460000004600010045000000A0
:102620004500010044000100430000004300010098
:102630004200000042000100410000004100010092
:10264000400001003F0000003F0001003E0000008C
:102650003E0001003D0000003D0001003C00000084
:102660003C0000003C0001003B0000003B0001007A
:102670003A0000003A000100390000003900010072
:10268000380000003800000038000100370000006A
:10269000370001003600000036000000360001005F
:1026A0003500000035000000350001003400000056
:1026B000340000003400010033000000330000004B
:1026C000330001003200000032000000320001003F
:1026D0003100000031000000310001003000000036
:1026E00030000000300001002F0000002F0000002B
:1026F0002F0000002F0001002E0000002E0000001F
:102700002E0001002D0000002D0000002D00000013
:102710002D0001002C0000002C0000002C00000007
:102720002C0001002B0000002B0000002B000000FB
:102730002B0001002A0000002A0000002A000000EF
:102740002A000100290000002900000029000000E3
:1027500029000000290001002800000028000000D6
:1027600028000000280000002800010027000000C9
:1027700027000000270000002700000027000100BC
:1027800026000000260000002600000026000000B1
:1027900026000100250000002500000025000000A3
:1027A0002500000025000000250001002400000095
:1027B0002400000024000000240000002400010088
:1027C000230000002300000023000000230000007D
:1027D000230000002300000023000100220000006D
:1027E0002200000022000000220000002200000061
:1027F0002200010021000000210000002100000053
:102800002100000021000000210000002100010043
:102810002000000020000000200000002000000038
:102820002000000020000000200000002000010027
:102830001F0000001F0000001F0000001F0000001C
:102840001F0000001F0000001F0001001E0000000C
:102850001E0000001E0000001E00000024F4D43002
:1028600050C38E20C2A24017828B7011127A910D34
:10287000816CD90AA861E108C7586607615143060F
:102880001E4B5D05C145A7041A411104093D98037B
:10289000713931034036DB0265339102D430540282
:1028A000802E1D02632CEE01752AC501B028A001FF
:1028B000102781018F2564012B244B01E022340174
:1028C000AC211F018D200D01801FFC00841EED0036
:1028D000971DDF00B81CD200E61BC600201BBC0001
:1028E000641AB200B219A8000A19A0006A18990067
:1028F000D117910040178B00B516840031167E0069
:10290000B31579003A157300C7146F0058146A00A4
:10291000EE1366008813630025135E00C7125B0088
:102920006C12570015125400C111510070114F0064
:1029300021114B00D61049008D104700461044006D
:1029400002104200C00F4000800F3E00420F3C00CA
:10295000060F3B00CB0E3800930E37005C0E35009F
:10296000270E3400F30D3200C10D3100900D300000
:10297000600D2E00320D2D00050D2C00D90C2B0002
:10298000AE0C2900850C29005C0C2700350C2700B3
:102990000E0C2600E80B2400C40B2400A00B23001F
:1029A0007D0B23005A0B2100390B2100180B20004E
:1029B000F80A1F00D90A1E00BB0A1E009D0A1D004E
:1029C000800A1D00630A1C00470A1B002C0A1B001A
:1029D000110A1A00F7091A00DD091900C4091900C3
:1029E000AB091900920917007B0918006309170049
:1029F0004C09160036091600200916000A091500B0
:102A0000F5081500E0081400CC081400B8081400FC
:102A1000A4081400900813007D0812006B0813002E
:102A2000580812004608120034081100230811004B
:102A30001208110001081100F0071000E007100053
:102A4000D0071000C0071000B0070F00A10710004A
:102A500091070E0083070F0074070F0065070E0033
:102A600057070E0049070E003B070D002E070E000A
:102A700020070D0013070D0006070D00F9060C00D6
:102A8000ED060D00E0060C00D4060C00C8060C0094
:102A9000BC060C00B0060C00A4060B0099060C0046
:102AA0008D060B0082060B0077060B006C060B00F0
:102AB00061060A0057060B004C060A0042060A008F
:102AC00038060A002E060A0024060A001A060A0022
:102AD0001006090007060A00FD050900F4050900B3
:102AE000EB050900E2050900D9050900D005090038
:102AF000C7050900BE050900B5050800AD050800B9
:102B0000A50509009C050800940508008C0508002F
:102B1000840508007C050800740508006C050700A2
:102B2000650508005D050700560508004E0507000D
:102B30004705070040050800380507003105070074
:102B40002A050700230507001C05060016050700D7
:102B50000F0507000805060002050700FB04060034
:102B6000F5040700EE040600E8040600E20407008E
:102B7000DB040600D5040600CF040600C9040600E5
:102B8000C3040600BD040600B7040600B104050036
:102B9000AC040600A6040600A00405009B04060081
:102BA00095040500900406008A04050085040500CC
:102BB000800406007A040500750405007004050011
:102BC0006B04050066040500610405005C04050053
:102BD00057040500520405004D0405004804050093
:102BE000430405003E0404003A04050035040500D2
:102BF000300404002C04050027040400230405000D
:102C00001E0404001A040400160405001104040044
:102C10000D04040009040500040404000004040079
:102C2000FC030400F8030400F4030400F0030400B0
:102C3000EC030400E8030400E4030400E0030400E0
:102C4000DC030400D8030400D4030400D003040010
:102C5000CC030400C8030300C50303005D2E00007D
:102C60006E23000013180000AF0E00003D080000A6
:102C70006304000045020000270100004D6F7665E7
:102C800020246D6D00302E303235004D6F7665207A
:102C9000302E316D6D004D6F766520316D6D004DBC
:102CA0006F76652031306D6D004D6F76652041780F
:102CB0006973004D6F7665202A004D6F7665204060
:102CC0000020002000200020002000486F6D696E69
:102CD00067204661696C656400FFFFFF50726F6298
:102CE000696E67204661696C65640A0050726F62A4
:102CF000696E67204661696C656400205A3A20005D
:102D000020593A200042656420583A200043616E01
:102D10006E6F74206F70656E2073756264697220C7
:102D200000486F6D6520257320466972737400201A
:102D3000453A00205A3A0020593A00583A002045B6
:102D400000205A0020590020204D393220580053CD
:102D5000746570732070657220756E697400220A44
:102D600000556E6B6E6F776E20636F6D6D616E6474
:102D70003A202200DB0FC93F45BCDA3F8FB3024047
:102D8000FCF0274056946140FE4B9B4084A5D84000
:102D9000E0231841346A5641E859974164DBD54134
:102DA0006E271742B4B75542CE1A9742C8AED542E5
:102DB000B5885A43D40684BFA65FA7BF7443E0BF5B
:102DC00010B11AC01C2C58C0E8F697C0B849D6C03C
:102DD0004E4E17C124D355C1802497C1A0B5D5C18B
:102DE000121A17C244AE55C2781797C26CACD5C23E
:102DF00067885AC320746F6F206C6F6E6720657888
:102E000074727573696F6E2070726576656E746525
:102E1000640A0020636F6C6420657874727573694E
:102E20006F6E2070726576656E7465640A006F6BF4
:102E30000A00526573656E643A2000334420507274
:102E4000696E7465722052656164792E00507269F2
:102E50006E74696E672E2E2E005072696E7420504B
:102E600061757365640000002200250028002B00B6
:102E70002E003100340002010000050108010B01A1
:102E800000002100240027002A002D00300033001C
:102E900001010000040107010A01050505050705F8
:102EA00008080808020202020A0A080804040404C6
:102EB00001010101010101010303030303030303F2
:102EC000040707070C0C0C0C0C0C0C0C0202020281
:102ED00006060606060606060B0B0B0B0B0B0B0B6A
:102EE000010210202008081020401020408002011C
:102EF0000201080402010102040810204080804001
:102F000020100804020180040201804020100804FF
:102F1000020108040201010204081020408001029D
:102F2000040810204080B2F52BFF11241FBECFEF04
:102F3000D1E2DEBFCDBF00E00CBF84B780937D142B
:102F400014BE0FB6F894A8958091600088618093B4
:102F50006000109260000FBE13E0A0E0B2E0E6E96E
:102F6000FBE102E00BBF02C007900D92AA31B1074E
:102F7000D9F724E1AAE1B3E001C01D92AD37B20751
:102F8000E1F717E1C4E9D7E100E006C021970109A4
:102F9000802FFE010F946D0AC339D10780E0080726
:102FA000A9F70E94D2F60D94BA0D0C940000FC0112
:102FB000A081B1811C92A281B3818C918F5F8C938F
:102FC0000280F381E02D90818CE0989F800D112488
:102FD000E1E5F2E113AE84AF0895FC018491089518
:102FE000FC0180810895009751F0FC0180E09191EF
:102FF000992331F0907C9038D1F38F5FF8CF80E047
:103000000895119800C09091020187FD90959170EC
:1030100090930001119A00C000C0119800C09091D7
:10302000020186FD9095917090930001119A00C065
:1030300000C0119800C09091020185FD909591709B
:1030400090930001119A00C000C0119800C09091A7
:10305000020184FD9095917090930001119A00C037
:1030600000C0119800C09091020183FD909591706D
:1030700090930001119A00C000C0119800C0909177
:10308000020182FD9095917090930001119A00C009
:1030900000C0119800C09091020181FD909591703F
:1030A00090930001119A00C000C0119800C0809157
:1030B0000201817080930001119A00C000C0089540
:1030C00090E080E00895CF93DF93C091ED06D0911A
:1030D000EE0681E0CE31D105E4F020E030E040E0C2
:1030E0005FE36091E9067091EA068091EB069091AA
:1030F000EC060F94880A0F94CC0B6C1B7D0B77FFAA
:1031000003C071956195710981E0633071050CF020
:1031100080E0DF91CF910895CF93DF93DB01F90138
:103120009C919130C1F0943080F094509C93883001
:10313000D1F480819181009771F001979183808310
:10314000480F591FEA01188206C08C3539F49C5F7C
:103150009C93943041F4DF91CF9108958B3339F7EC
:1031600081E08C93F8CF20813181B9016F5F7F4F6F
:1031700071836083420F531FEA01888380819181AC
:103180008F3591056CF7E7CF0F931F9381E0009186
:10319000A4131091A5132091A6133091A713409169
:1031A000A0135091A1136091A2137091A31304175F
:1031B00015072607370708F480E01F910F9108953F
:1031C00090E080E0089520918804833021F425FD6B
:1031D0000CC024FD0CC030E0A90102C055954795F4
:1031E0008A95E2F7CA018170089581E0089580E030
:1031F00008958091A40484FD0BC08091A60487FDEE
:1032000007C09091A704937081E019F480E00895BD
:1032100081E008952FEB280F2A3108F047C0E22FF4
:10322000F0E08091A4049091A504A091A604B0912F
:10323000A70404C0B695A795979587952A95D2F7C8
:1032400080FD02C081700895E657FB4FE081EE23B8
:1032500041F180913C0790913D07E80FF92FF11D56
:10326000808190ED980F9A3030F08E3251F4818148
:1032700080538A3098F4F0936E04E0936D0481E0FB
:1032800008958D3211F08B3249F4818190ED980FC1
:103290009A3088F38E3211F48281EACFF0E0E0E0D8
:1032A000EACF10926E0410926D04E9CF80E0089589
:1032B000B1DF882341F081E020916D0430916E04EC
:1032C000232B09F480E008958F929F92AF92BF92D2
:1032D000CF92DF92EF92FF92FC01828158E5C52EDA
:1032E00052E0D52EC81AD10887FDD394CC0CDD1C32
:1032F000CC0CDD1C0D2C000CEE08FF08818178E859
:10330000872E912C881A910887FD9394880C991C1C
:10331000880C991C092C000CAA08BB0880818F3FDF
:10332000D1F190E0FC01EE0FFF1FE80FF91FE4530D
:10333000FE4E8181928133E0880F991F3A95E1F723
:10334000B0E0A0E044E0B595A795979587954A959C
:10335000D1F702969C012F5F3F4F032E000C440BC8
:10336000550B281939094A095B09A4EBB0E00F9401
:103370000E0AA7019601281939094A095B090F9419
:10338000F209C901FF90EF90DF90CF90BF90AF900E
:103390009F908F90089590E080E0DCCFCF92DF92F5
:1033A000EF92FF920F931F930E948DE70091B60456
:1033B0001091B7042091B8043091B9046B017C01DD
:1033C000C01AD10AE20AF30A9701860137FD11C03B
:1033D0002091B50420952093B5046A547C4F8F4FFB
:1033E0009F4F6093B6047093B7048093B804909392
:1033F000B90481E09091B504911101C080E01F9162
:103400000F91FF90EF90DF90CF900895CF93DF93CF
:10341000C091ED06D091EE06209729F16091E90662
:103420007091EA068091EB069091EC060F94CC0B1C
:103430006E5F7F4F24976C177D07ACF470936B051C
:1034400060936A050E948DE7605A75418F4F9F4FC8
:1034500060936C0570936D0580936E0590936F0576
:10346000DF91CF91089510926C0510926D05109226
:103470006E0510926F05F4CFBF92CF92DF92EF925C
:10348000FF920F931F93CF93DF936B01E9014A30B3
:1034900009F4DFC0453109F08AC0DB011296ED91D5
:1034A000FC911281C681D781809102018095827042
:1034B0008093000100C0000086E290E00197F0F7E1
:1034C000012F0295007F20E1B22EB10E88EF99DD29
:1034D00000C0000086E290E00197F0F7103208F09B
:1034E000A5C0812F807780688CDD802F8ADD00C0A9
:1034F000000086E290E00197F0F780E882DD80E04E
:1035000080DD00C0000086E290E00197F0F78AEFCE
:1035100078DD00C0000086E290E00197F0F77E01C0
:10352000B0E1EB0EF11C8881807F6BDD8991829583
:10353000807F67DDCE15DF05B1F700C0000086E2B1
:1035400090E00197F0F71F5F005F1B11BFCF8091E4
:103550000201827080930001D6011296ED91FC91D8
:1035600080819281980F92832181921708F0EDC19A
:1035700094819F5F94839381890F821710F08FEF5E
:10358000820F8383458150E0440F551F70E060E057
:10359000868197810F94740D81E0DF91CF911F9107
:1035A0000F91FF90EF90DF90CF90BF900895FB01B7
:1035B00002811381423309F4CAC108F4D2C14634EE
:1035C00009F4BFC1473409F4C7C14B3329F78981D6
:1035D0002B81D80112966C91129713964C91213041
:1035E00009F404C2233009F0E5C138EF380F582F31
:1035F00091E0431708F490E041E0531708F040E0F1
:1036000031E0561708F430E0592F542B352319F4C4
:10361000942309F4C1CFFA8030E0F901E156FD4F5F
:10362000D08025563D4FF901E080DDC180EE810F4D
:103630008068807FE6DC812F8295807FE2DC00C09D
:10364000000086E290E00197F0F780E8DADC80E89D
:1036500057CF809101018260809301018091020126
:10366000827080930001809101018160809301014B
:1036700080910201817080930001099A119A8091D2
:103680000201809582708093000100C0000086E2F4
:1036900090E00197F0F788E790E0CEE9DFE0FE01E7
:1036A0003197F1F70197D9F788EFABDC00C0000044
:1036B00086E290E00197F0F780E2A3DC80E0A1DCF5
:1036C00000C0000086E290E00197F0F780E099DC0E
:1036D00080E897DC00C0000086E290E00197F0F7F8
:1036E00080E08FDC80E18DDC00C0000086E290E0AD
:1036F0000197F0F7CE010197F1F7CE010197F1F7AD
:10370000CE010197F1F7CE010197F1F7CE010197B4
:10371000F1F7CE010197F1F7CE010197F1F7CE0154
:103720000197F1F7CE010197F1F7CE010197F1F77B
:10373000CE010197F1F7CE010197F1F7CE01019784
:10374000F1F7CE010197F1F72197F1F780E259DC0B
:1037500080E457DC00C0000086E290E00197F0F7BB
:1037600080E24FDC80E64DDC00C0000086E290E0A5
:103770000197F0F7D0E0C0E08C2F8077806841DCC3
:103780008D2F3FDC00C0000086E290E00197F0F74B
:1037900080E837DC80E035DC00C0000086E290E0A5
:1037A0000197F0F78AEF2DDC00C0000086E290E080
:1037B0000197F0F790E2119800C0809102018170AA
:1037C00080930001119A00C000C0119800C0809140
:1037D0000201817080930001119A00C000C011980D
:1037E00000C080910201817080930001119A00C095
:1037F00000C0119800C08091020181708093000187
:10380000119A00C000C0119800C08091020181701F
:1038100080930001119A00C000C0119800C08091EF
:103820000201817080930001119A00C000C01198BC
:1038300000C080910201817080930001119A00C044
:1038400000C0119800C08091020181708093000136
:10385000119A00C000C0119800C0809102018170CF
:1038600080930001119A00C000C0119800C080919F
:103870000201817080930001119A00C000C011986C
:1038800000C080910201817080930001119A00C0F4
:1038900000C0119800C080910201817080930001E6
:1038A000119A00C000C0119800C08091020181707F
:1038B00080930001119A00C000C0119800C080914F
:1038C0000201817080930001119A00C000C011981C
:1038D00000C080910201817080930001119A00C0A4
:1038E00000C0119800C08091020181708093000196
:1038F000119A00C000C000C00000E6E2F0E031977D
:10390000F0F7915009F057CF88EF7BDB00C0000043
:1039100086E290E00197F0F7CF5FD05FC03209F008
:103920002BCF80E06EDB80EC6CDB00C0000086E219
:1039300090E00197F0F7809102018270809300017E
:103940002BCEF8018581888327CE80E026CEB90171
:10395000C8010E9403E820CED80111968C9188837B
:103960001BCE443191F0473109F016CE1882D801B0
:1039700012968C911297898315968C911597815088
:103980008A8313968C918B8307CED80115964C9120
:10399000159750E0440F551F70E060E016968D912A
:1039A0009C910F94740DF801128280818150838361
:1039B0001482F2CD481708F4EFCD861708F4ECCD49
:1039C000FA80E12CD12C243070F426CEBE01C8013F
:1039D0000E9403E8898198819D0D98838E0D8983CB
:1039E000FF0C09F4D9CDF7FEF6CFF0CF58E0580F11
:1039F000382FFECDEF92FF920F931F93CF93DF935B
:103A0000EC018B017A018A859B858617970731F037
:103A1000888199810E94FDEA1B870A87B701888106
:103A200099810E943DE42E813F81820F932F911D49
:103A30009F838E8390E080E0DF91CF911F910F9163
:103A4000FF90EF9008959F92AF92BF92CF92DF9236
:103A5000EF92FF920F931F93CF93DF93EC018B01B3
:103A6000942EA52E8A859B858617970731F088812D
:103A700099810E94FDEA1B870A87888599850196AE
:103A800049F5BC800A818E81080FC880D980D60193
:103A90005596ED91FC91C6011995B80EE92CFA2CBA
:103AA00010E0F70121917F01211127C08E819F81B4
:103AB000810F911D9F838E8390E080E0DF91CF91F5
:103AC0001F910F91FF90EF90DF90CF90BF90AF903C
:103AD0009F9008950E811F81692D7A2D888199818B
:103AE0000E943DE4800F912F911D2885398528176C
:103AF000390738F681E090E0E1CF4B2D602FC60109
:103B00000E9455EB080F180FCCCFDF92EF92FF9277
:103B10000F931F93CF93DF93EC01D62E1CAD0BAD0B
:103B20007C0184E0E80EF11CE98DFA8DC70119953E
:103B3000412F480F2D2D602FC7010E9455EB9BADE3
:103B4000890F8BAF81E090E0DF91CF911F910F91B2
:103B5000FF90EF90DF900895CF93C091CA04CC23DB
:103B600091F14CE050E060E270E08CEB94E00F9457
:103B7000740D80E2C43628F08C2F64E60F942D0A71
:103B8000805D8093FB0490E2CA3040F02AE08C2FE5
:103B9000622F0F942D0A0F942D0A905D9093FC04D0
:103BA0008C2F6AE00F942D0A905D9093FD0483E0C2
:103BB000EBEFF4E0A0ECB4E001900D928A95E1F710
:103BC00085E28093C304CF910895CF938091B2048E
:103BD000811154C010928C1210928D1210928E127C
:103BE00010925A121092591210925C1210925B129B
:103BF00010925E1281E080935D1282E280935F12E8
:103C00001092641210926312E8E7F2E126E832E1C2
:103C10008FEF81932E173F07E1F7C1E0C093751234
:103C200027E237EC30936B1220936A12C0936C1228
:103C300010926D1210926E1290E490936F12109287
:103C4000701226E237EC309387122093861221E11E
:103C500032E0309358122093571297E190937C12E0
:103C600091E190937D1290E190937A128093791272
:103C7000809378120E9441E8C093B20481E080935F
:103C8000B40485EF91E190933A1180933911109229
:103C90003C1110923B11CF910895CF92DF92EF9299
:103CA000FF920F931F93CF93DF93CDB7DEB72C977F
:103CB0000FB6F894DEBF0FBECDBFF0908C12E0902F
:103CC0008D122091B40421111DC045EB51E16E2DE0
:103CD0008F2D0E94C0EB90E080E0F80EF0928C12E5
:103CE000E0928D1299272C960FB6F894DEBF0FBE86
:103CF000CDBFDF91CF911F910F91FF90EF90DF909B
:103D0000CF900895C0905912D0905A1225E532E113
:103D10003A8329832F2D30E03C832B832E2D30E0F6
:103D20003E832D8318861F827A8769871C861B86AF
:103D300003E21DE19E012F5F3F4F4DEE57E1BC01B5
:103D4000C6010E94E1DAB60185E592E10E94FDEA32
:103D50008F819885C2CFCF93DF9300D01F92CDB7CC
:103D6000DEB780E090E0A0EAB0E489839A83AB8379
:103D7000BC8361E0CE0101960E94979D0F900F9049
:103D80000F900F90DF91CF91089580916D049091E5
:103D90006E04009731F04AE050E070E060E00D946E
:103DA000E40160E070E0CB01089580916D04909192
:103DB0006E04009731F04AE050E070E060E00D944E
:103DC000B80060E070E0CB010895EFDF97FD0AC016
:103DD000ECDF6F3F71058105910509F02CF4E5DFFB
:103DE000862F089580E008958FEF0895CF93C62F12
:103DF0005FDA882311F0CF91E8CF8C2FCF9108950F
:103E000080916D0490916E04892B39F0DEDF91E092
:103E1000811101C090E0892F089591E0FCCFCF93EC
:103E2000DF93C82FD62F44DA882319F0DF91CF9182
:103E3000E7CF8C2FEFD9811101C08D2FDF91CF916A
:103E40000895B3DFCB010895CF93DF93EB0130DA10
:103E5000882319F0DF91CF91F4CFCE01DF91CF917C
:103E600008950F931F93CF9380916D0490916E04EA
:103E7000009709F1FC018F01C1912C2F2F7DA1F03A
:103E8000C53431F0C53621F0C83511F0C83799F77F
:103E9000F801108270E060E00E9462FFF801C083C8
:103EA000CF911F910F91089570E060E0CF911F9125
:103EB0000F910C9462FF60E070E0CB01F1CFCF92E4
:103EC000DF92EF92FF926A017B01F2D9882329F0F9
:103ED000FF90EF90DF90CF90C4CFC701B601FF9065
:103EE000EF90DF90CF9008954F925F926F927F9204
:103EF000AF92BF92CF92DF92EF92FF920F931F93F8
:103F0000CF9387E9A82E82E0B82E90E1E92E95E0C4
:103F1000F92E05E612E02FE2C22E27E0D22EC0E0F5
:103F2000F50181915F01C4D9882309F476C099DF36
:103F30002B013C018C2F47D9882309F464C0F80178
:103F40002081318142815381C301B2010F94880ADB
:103F5000F7016083718382839383CF5FF4E0EF0E78
:103F6000F11C0C5F1F4F84E0C80ED11CC330C1F69A
:103F700085E49ED9882309F45BC073DF6B017C0163
:103F800083E021D9882371F020917102309172026F
:103F90004091730250917402C701B6010F94880AD0
:103FA0006B017C01C0921C05D0921D05E0921E059C
:103FB000F0921F0540E050E0BA0186E480DF20E087
:103FC00030E0A9010F94AF0C18167CF44ADF20E012
:103FD00030E040E752E40F94640B60932802709342
:103FE000290280932A0290932B02CF911F910F9167
:103FF000FF90EF90DF90CF90BF90AF907F906F9049
:104000005F904F900895F601208131814281538164
:10401000C301B2010F94870A9BCFF801808191817F
:10402000A281B381F70180839183A283B38395CF6B
:104030008091710290917202A0917302B09174020A
:1040400080931C0590931D05A0931E05B0931F053A
:10405000B1CFAF92BF92CF92DF92EF92FF920F93C8
:104060001F93CF935C016B018A01835E9B4F7C01A0
:10407000DC01CC91C7FF3DC0FB0111821082CF5FF4
:10408000D701CC93CC300CF053C08CE08A9DF0016A
:104090008B9DF00D1124CF018C0F911DC7FD9A95BA
:1040A000209114122817190609F00CF441C0F601EA
:1040B00020813181FC01EE0FFF1FE80FF91FE4534F
:1040C000FE4E81819281820F931FD80111969C939D
:1040D0008E93808187FF3DC061E08F77CF911F91E4
:1040E0000F91FF90EF90DF90CF90BF90AF900C9426
:1040F000CEE68CE08A9DF0018B9DF00D1124CF015E
:104100008C0F911DC7FD9A9520911412281719063E
:1041100009F00CF4B4CFFC01EE0FFF1FE80FF91FFC
:10412000E453FE4E808160E08F770E94CEE6A7CFF9
:10413000F6018081918104968034FCE99F0710F498
:1041400080E49CE9D80111969C938E938FEFF70140
:104150008083CF911F910F91FF90EF90DF90CF90D0
:10416000BF90AF900895CF92DF92EF92FF92CF93DE
:10417000C82F0E948DE76B017C0124EA30E74DE7F0
:104180005FE360912202709123028091240290915A
:1041900025020F94BC0387FD18C08AEF90E0A0E0D1
:1041A000B0E08C0D9D1DAE1DBF1D8093DE0490936D
:1041B000DF04A093E004B093E104C0931802CF9110
:1041C000FF90EF90DF90CF90089580E090E0DC01C9
:1041D000E8CFFBDC3E98469A3C98449A3A98429A3B
:1041E0000F98179A0E94F4C31092EE040C9445DBCA
:1041F000FC0180E0309749F09491992331F0907C54
:10420000903809F08F5F3196F7CF0895AF92BF9243
:10421000CF92DF92EF92FF920F931F93CF93DF9392
:10422000EC015B018A01FB01199587FD16C0C82EC0
:10423000D12CF12CE12C2196F801C082D182E282AE
:10424000F382CE01DF91CF911F910F91FF90EF90FC
:10425000DF90CF90BF90AF900895982F907E903CC4
:10426000A9F48F7190E0B0E0A0E06C017D0156E010
:10427000CC0CDD1CEE1CFF1C5A95D1F7CE0101962B
:10428000F50119958F73C82A2296D6CF982F907F63
:10429000903E11F58F7090E0B0E0A0E06C017D01E0
:1042A00036E0CC0CDD1CEE1CFF1C3A95D1F7CE019C
:1042B0000196F50119958F73C82A46E0CC0CDD1CD8
:1042C000EE1CFF1C4A95D1F7CE010296F501199517
:1042D0008F73C82A2396B0CF982F987F903F79F597
:1042E000877090E0B0E0A0E06C017D0186E0CC0C2E
:1042F000DD1CEE1CFF1C8A95D1F7CE010196F5015D
:1043000019958F73C82A96E0CC0CDD1CEE1CFF1C9F
:104310009A95D1F7CE010296F50119958F73C82AA7
:1043200026E0CC0CDD1CEE1CFF1C2A95D1F7CE013B
:104330000396F50119958F73C82A24967DCF982F7F
:10434000907C903841F4807C803869F42196CE01CD
:10435000F5011995F8CF8E7F8D3F28F02196CE017B
:10436000F5011995F8CFC12CD12C760165CF9CE0D1
:10437000899F802D112491E0980F9093B3042CE035
:10438000280F2093260730E02E5F3F4F409189127F
:104390004217130619F014F080E0089520918B1253
:1043A0009217D0F7662341F08E5F0E9463E98091F7
:1043B00026078E5F0E9463E98091260790918912FB
:1043C000891750F320918B129091B304291720F391
:1043D00010928C1280938D1281E008952091B10487
:1043E000022E000C330B8217130641F08093B104A8
:1043F00069E173E185E592E10C94FDEA0895EF929D
:10440000FF920F931F93CF93DF93CDB7DEB72C9717
:104410000FB6F894DEBF0FBECDBFFC016081718185
:10442000828193816F3F71058105910509F0B8F490
:1044300081E592E16ADBE0915912F0915A123196CE
:10444000849190E02C960FB6F894DEBF0FBECDBFDE
:10445000DF91CF911F910F91FF90EF9008951091F0
:104460008C1200918D122091B40421110FC045EDE2
:1044700051E1602F812F0E94C0EB90E080E0180F87
:1044800010938C1200938D129927DCCFE090591273
:10449000F0905A1225E532E13A832983212F30E04A
:1044A0003C832B83202F30E03E832D8318861F8290
:1044B0002FEF3FEF3A8729871C861B8623E23DE1D9
:1044C000AE014F5F5F4FBF01C7010E941CDAB70109
:1044D00085E592E10E94FDEA8F819885D0CF4F92C9
:1044E0005F926F927F928F929F92BF92CF92DF9254
:1044F000EF92FF920F931F93CF93DF9300D000D0E2
:104500001F921F92CDB7DEB77C016A014901FB0102
:1045100090818CE0989F800D1124982FF7012081C5
:10452000822F880F820F880F80938C1290938D12A8
:104530004115510569F1FA82E9827C836B8301118F
:1045400020C0AE014B5F5F4FB401C6015FDE6C015E
:104550008D819E81AF81B885892B8A2B8B2BC1F0F1
:10456000CE0105964CDFF70180818F5F8083853116
:1045700040F3CE0101960E94D717E3CFB12C8601FC
:1045800029C08A01B12C26C0452846284728B1F702
:1045900028960FB6F894DEBF0FBECDBFDF91CF9146
:1045A0001F910F91FF90EF90DF90CF90BF909F9061
:1045B0008F907F906F905F904F900895B39407C055
:1045C000B1102DC001151105C9F20F5F1F4F011564
:1045D0001105A9F2AE014B5F5F4FB401C60116DEB3
:1045E0006C014D805E806F807884411451046104B9
:1045F0007104A9F0F0E24F1651046104710401F353
:10460000D301C2018D97A109B1090297A105B10596
:1046100030F04BE2441651046104710479F6F7015D
:104620008081482F4B0D5527551F4631510534F0D9
:10463000853020F0CE0101960E94D71781E0411409
:1046400051046104710409F480E0B80EF70180811F
:104650008B0D8083BB2009F497CFBA94AE014B5FDA
:104660005F4FB401C801D2DD8C01CE010596C7DED3
:10467000F1CF6FEF7FEF11CBE1E5F2E183AF64AFF4
:10468000CA01F7CFF6CFCF93DF93FC0125AD2111FF
:1046900004C021E025AF0E9441E8C0915712D0919B
:1046A0005812E0918612F091871282E01995E091FC
:1046B0008612F091871281E0199530E020E044E104
:1046C000BE0185E592E10E943DE828E832E147E13C
:1046D000BE0185E592E10E943DE8E0918612F091ED
:1046E000871280E0DF91CF9119944F925F926F9281
:1046F0007F928F929F92AF92BF92CF92DF92EF9272
:10470000FF921F93CF93DF93CDB7DEB760970FB6BD
:10471000F894DEBF0FBECDBF0E948DE76B017C0118
:10472000809118028F3F09F444C00E948DE7809069
:10473000DE049090DF04A090E004B090E1046819DA
:1047400079098A099B0997FD34C0809129129091BB
:104750002A128F5F8F70891761F1E0911802E4309F
:1047600008F060C024E0E29FF0011124ED55FD4FF8
:1047700080819181A281B3818D879E87AF87B88B1D
:1047800019821A821B821C821D821E821F82188639
:1047900019861A861B861C86AE014F5F5F4FBE01CD
:1047A000635F7F4F85E692E00E9444DE8FEF809347
:1047B00018020E94F4C38091EF0482FF3CC08091F4
:1047C000ED0481113AC091E09093ED048091F404DE
:1047D0008927809307071092F40483E08093600296
:1047E0001092EF040E948DE76C507E4F8F4F9F4FC9
:1047F0006093F0047093F1048093F2049093F304B7
:1048000068E873E182E090E00E943EA416E0115057
:10481000A1F00E94E2A362E070E080E090E00E94DC
:104820005AE7F5CF8091610290916202A0916302F4
:10483000B0916402A1CF1092ED048091E9049091AF
:10484000EA04A091EB04B091EC04A7019601281BA7
:10485000390B4A0B5B0BDA01C901B7FF05C0809128
:10486000F504882309F4BCC1D701C6018C599F4FB8
:10487000AF4FBF4F8093E9049093EA04A093EB04F9
:10488000B093EC046091EE04062E000C770B77FFDA
:1048900003C07195619571099091EE048091E804CF
:1048A000981366C0633008F063C01092EE048091E4
:1048B000EE048093E804643008F06AC08091070732
:1048C0008111EAC080914F129091501282529F4202
:1048D00041F480911902882309F4F0C0815080933B
:1048E00019020E945C908090560790905707A09004
:1048F0005807B090590781110E946990D501C401F1
:104900003AE0B695A795979587953A95D1F78F3F59
:104910004FEF9407A105B10520F08FEF9FEFA0E0C6
:10492000B0E096958795209160022111D9C0309111
:10493000F504311184C180914F129091501282522E
:104940009F4209F463C18091080781115FC1809182
:10495000E4049091E504A091E604B091E704C81A3C
:10496000D90AEA0AFB0AF7FC5FC10E9474A55CC180
:10497000633009F09CCF8091EE0487FD07C081E091
:10498000880F880F8093EE0464E091CF8FEFF8CF0B
:104990008091250721E030E040E050E0882309F4D1
:1049A00056C08090210790902207A0902307B090D6
:1049B000240781149104A104B104E9F170E090E0AE
:1049C00080E00F94C00320E030E040E85EE30F9405
:1049D00021042B013C01C701B601681979098A0934
:1049E0009B090F94C0039B01AC01C301B2010F945A
:1049F000640B20E030E04AE754E40F9421044B01BB
:104A00005C0120E030E040EA52E40F94AF0C24E671
:104A100030E040E050E087FF12C020E030E040EF9F
:104A200051E4C501B4010F94AF0C2AE030E040E03E
:104A300050E087FF04C021E030E040E050E0C09249
:104A40002107D0922207E0922307F0922407079BC8
:104A500021C0A091EE040A2E000CBB0B0F94180A83
:104A600024E030E040E050E00F94F209809110071C
:104A700090911107A0911207B0911307820F931F15
:104A8000A41FB51F8093100790931107A0931207DE
:104A9000B09313071092EE04D701C6018856954CC7
:104AA000AF4FBF4F8093E4049093E504A093E604D6
:104AB000B093E70481E08093600204CF8CE08093A0
:104AC00019028091E2049091E304009729F0019784
:104AD0009093E3048093E20481E08093600201CF2D
:104AE000009741F04091E2045091E30448175907C0
:104AF00008F021CF8091F504811111C0223038F0E7
:104B0000243008F43FC0243011F41092600281E593
:104B100092E1B9DD81E080930C078093F50483E096
:104B20005DDC81E080937512E0914F12F09150129C
:104B3000199510920C078091F504811127C01092ED
:104B4000070780914F129091501282529F4209F0B4
:104B5000FACE0E948DE7DC01CB018C199D09AE09CC
:104B6000BF098090E2049090E304B12CA12C881638
:104B70009906AA06BB0608F0DECE9093E304809364
:104B8000E204D9CE81E080936002C1CF85E592E155
:104B90000E94CDEA91E0811101C090E09093F5046C
:104BA000882369F280914F129091501282529F4255
:104BB000B9F40E948DE7DC01CB018C199D09AE0987
:104BC000BF09C090E204D090E304F12CE12CC81698
:104BD000D906EA06FB0620F49093E3048093E204EE
:104BE00060960FB6F894DEBF0FBECDBFDF91CF91B8
:104BF0001F91FF90EF90DF90CF90BF90AF909F906C
:104C00008F907F906F905F904F90089548E9C40E09
:104C10004AE3D41EE11CF11CC092E404D092E504E6
:104C2000E092E604F092E7048091F5048111D8CF78
:104C3000809160028130A1F610926002D1CF00977E
:104C400009F46DCF4FCFCF92DF92EF92FF920F9387
:104C50001F93CF93DF93CDB7DEB72C970FB6F894A1
:104C6000DEBF0FBECDBFF0908C12E0908D12209170
:104C7000B40421111DC045E951E16E2D8F2D0E9414
:104C8000C0EB90E080E0F80EF0928C12E0928D1272
:104C900099272C960FB6F894DEBF0FBECDBFDF91DB
:104CA000CF911F910F91FF90EF90DF90CF900895DB
:104CB000C0905912D0905A1225E532E13A832983E7
:104CC0002F2D30E03C832B832E2D30E03E832D832F
:104CD00018861F827A8769871C861B8603E21DE17E
:104CE0009E012F5F3F4F40EF57E1BC01C6010E947C
:104CF000E1DAB60185E592E10E94FDEA8F819885AF
:104D0000C2CF6F927F928F929F92AF92BF92CF92BB
:104D1000DF92EF92FF920F931F93CF93DF9300D018
:104D200000D01F921F92CDB7DEB77C01162F5A011B
:104D30004901862F660F990B9C0129563D4F690149
:104D400086E0682E712C10160CF03CC0AE014B5F53
:104D50005F4F6DEE77E1C70159DA7C018D819E814D
:104D6000AF81B8850097A105B10561F18D3391053B
:104D7000A105B10509F474C08E379105A105B105EF
:104D800009F46EC08A329105A105B10589F517FFB6
:104D900012C082E392E11E3F11F08EE292E136E012
:104DA0000302B00111240E944D1E66E070E00F94D2
:104DB0005A0A061B8DC08CE392E164DC015009F0B5
:104DC00051C000E0802F28960FB6F894DEBF0FBECA
:104DD000CDBFDF91CF911F910F91FF90EF90DF90AA
:104DE000CF90BF90AF909F908F907F906F900895DD
:104DF00084329105A105B105C9F48114910461F0D3
:104E0000E6E00E02B0011124C4010E944D1EB30160
:104E10000F945A0A061B97CFA114B104E1F0F6E0F3
:104E20000F02B0011124C5010EDFF1CF80349105CE
:104E3000A105B10581F40150F6018081082E000C16
:104E4000990BAA0BBB0B89839A83AB83BC83CE01DE
:104E50000196D5DA78CFCE010596D1DA015073CF1D
:104E600017FD97CF81E04D815E816F8178854D334D
:104E700051056105710509F480E0810F8A30C4F0A5
:104E800001506AE00F94390AD92E082E000C990BB4
:104E9000C096092E000CAA0BBB0B89839A83AB83A7
:104EA000BC83CE010196ABDA002309F48ACF8D2DA5
:104EB000082E000C990BC096092E000CAA0BBB0BF8
:104EC00089839A83AB83BC83CE01019698DA015023
:104ED000002309F476CF86E00802B0011124C7014F
:104EE0000E944D1E66E070E00F945A0A061B6ACFBE
:104EF0006FEF7FEFA8CE8F929F92AF92BF92CF922B
:104F0000DF92EF92FF920F931F93CF93DF9300D026
:104F10001F92CDB7DEB74C016B016AD9A82EC6012E
:104F20000E94F317B12C23E130E07901E81AF1086F
:104F300015E2EA14FB040CF41FE1812F90E09C01C0
:104F40002E5F3F4F409189124217130611F00CF06B
:104F50003FC0099720918B1228171906CCF1209198
:104F60002A0730912B07409128075091290760911B
:104F7000270710928C1210938D1205E1C401C1DE37
:104F800001E0C114D10499F089EF91E17BDBEA14CF
:104F9000FB0404F5145F80918912181740F02091EA
:104FA0008B12412F4950550B24171506ACF40F9066
:104FB0000F900F900F90DF91CF911F910F91FF9065
:104FC000EF90DF90CF90BF90AF909F908F9008951B
:104FD00000E0D7CF002359F380E290E0A0E0B0E0FA
:104FE00089839A83AB83BC838E2D880FE80EEE0CE9
:104FF000E0928C1210938D12CE01019600DAC60158
:1050000077DFD5CF8F929F92AF92BF92CF92DF92F0
:10501000EF92FF920F931F93CF93DF93CDB7DEB73D
:105020002C970FB6F894DEBF0FBECDBF982F862FFA
:105030005A017901C02E692F9AD9882309F482C0B8
:105040001091B404C701002361F1D2D8D82E80900A
:10505000591290905A12111140C01FEF03E10D191F
:1050600020912A0730912B0740912807509129075A
:1050700060912707C50145DEDD2009F463C0B6E075
:105080008B9F5001112487EF91E1FCDA57E0A516C0
:10509000B10408F43FC085EF91E1EBDAA81AB90A30
:1050A000F5CF0E94F317D82E8090591290905A1283
:1050B000112399F2FE0133968AE0DF011D928A9551
:1050C000E9F785E592E19A8389830AEF1CE19E0165
:1050D0002F5F3F4F40EF57E112C0FE0133968AE049
:1050E000DF011D928A95E9F785E592E19A8389832C
:1050F0000AEF1CE19E012F5F3F4F4DEE57E1B701D4
:10510000C4010E94E1DAB40185E592E10E94FDEA62
:105110001F81A4CF40912607212F30E0A6E0DA9E20
:10512000C00111242E5F3F4F281739070CF49C0152
:1051300080E8821B80938C1240938D12C701CC2093
:10514000A1F097DA2C960FB6F894DEBF0FBECDBF54
:10515000DF91CF911F910F91FF90EF90DF90CF9053
:10516000BF90AF909F908F900895C2DEEBCF0C94CC
:10517000D6DB8F929F92AF92BF92CF92DF92EF9247
:10518000FF920F931F93CF93DF931092A904109275
:10519000A8042FE32093AC041092AB041092AA044D
:1051A0001092A4041092A5041092A6041092A704D1
:1051B0009C01F90190812F5F3F4F9032D1F39E34D3
:1051C000C9F4818190ED980F9A3020F08D3211F062
:1051D0008B3281F432969F012F5F3F4F8081805345
:1051E0008A3008F46BC09F012F5F3F4F808180326F
:1051F00009F466C0F0933D07E0933C078F010F5F11
:105200001F4FC0816AE270E0C8010F948E0D0097B5
:1052100031F0FC01319780818032E1F31182CD348D
:1052200021F0C43511F0C734E1F5F80180810F5F3A
:105230001F4F8032D1F380538A3098F5C093AC046D
:1052400030E020E06AE0AF014F5F5F4F629FC00136
:10525000639F900D11249C01205331098081280FF8
:10526000311D87FD3A95FA01808180538A3058F3C9
:105270003093AB042093AA04DF0131968C918032E5
:10528000D9F3CD3449F52E31310539F0D8F4273131
:10529000310519F02C313105F9F4B093A904A0932C
:1052A000A804DF91CF911F910F91FF90EF90DF90B5
:1052B000CF90BF90AF909F908F900895F9018BCFC2
:1052C000F90191CF2537310538F02737310528F31B
:1052D000203A83E0380709F3D0913C0740E050E0E2
:1052E000BA0110E000E0C12CD12C7601C394FD017D
:1052F00031968C91882309F47FC08132E1F4CD345A
:10530000D1F420323105B9F44093A4045093A5049C
:105310006093A6047093A704F093A904E093A804F3
:1053200063E270E0CF010F948E0D009709F4B9CFBE
:10533000FC011082B6CF81548A3108F058C0DF01D9
:105340009D91903291F0A0EDA90FAA30E8F09E3225
:1053500071F4918190539A30B8F00115110519F448
:105360008F010150110990E013C0FD01E8CF9D327B
:1053700011F09B3291F79181A0EDA90FAA3020F096
:105380009E3259F79281E6CF9E2F9D1B309759F39D
:10539000A82FB0E04601570104C0880C991CAA1C34
:1053A000BB1C8A95D2F7482959296A297B29A65717
:1053B000BB4F9C9380818154DF018A3108F497CFE1
:1053C000DF018191882309F492CF90ED980F9A30F4
:1053D000B8F393ED980F923098F38B3289F3CD01A7
:1053E0000196EC91E03209F082CFDC01F8CF011593
:1053F000110501F78D01DECF1093A9040093A804D5
:105400004093A4045093A5046093A6047093A7044A
:1054100048CF80912E07882319F080E00E94E3A1F5
:1054200080E008958F929F92AF92BF92CF92DF92C9
:10543000EF92FF92CF93DF93CDB7DEB760970FB6B1
:10544000F894DEBF0FBECDBF80E090E0A6E1B3E4EC
:105450008D839E83AF83B8878D879E87AF87B88BF8
:10546000E0912412F091251280809180A280B38077
:1054700020E030E040EA50E4C501B4010F94870A0F
:105480006B017C0120E030E040E251E40F94BC036A
:1054900087FF06C0C12CD12C90E2E92E91E4F92EB1
:1054A000C982DA82EB82FC8220E030E046E953E4F4
:1054B000C501B4010F94880A6B017C0120E030E043
:1054C00041E953E40F94AF0C181634F4C12CD12CDD
:1054D00081E9E82E83E4F82EC986DA86EB86FC861D
:1054E00080E1FE013196A8E7B4E001900D928A9523
:1054F000E1F760960FB6F894DEBF0FBECDBFDF9127
:10550000CF91FF90EF90DF90CF90BF90AF909F90A2
:105510008F900895CF93C82F882379F020E030E052
:10552000A90160913B0570913C0580913D059091EA
:105530003E050F94BC038823C9F080913A058C176F
:10554000A9F00E943B8E85E692E00E945D8E8091DC
:105550003A0591E0892780933A05882321F085E672
:1055600092E00E94FD8CCF910C94E69DCF9108951E
:105570004F925F926F927F928F929F92AF92BF9263
:10558000CF92DF92EF92FF921F93CF93DF93EC01C4
:10559000162F2091360530913705409138055091EE
:1055A0003905688179818A819B810F94BC038823A6
:1055B00009F4ACC0B0903A0580E0ACDFC880D98077
:1055C000EA80FB8020E030E0A901C701B6010F941A
:1055D000AF0C18161CF0C12CD12C7601C0923605E8
:1055E000D0923705E0923805F09239052DEB37E37C
:1055F00046E855EBC701B6010F94AF0C87FD0BC011
:105600002DEB37E346E855E3C701B6010F94BC0321
:1056100018160CF077C0A701960160E070E080E8F2
:105620009FE30F94640B6093290570932A05809380
:105630002B0590932C0580EF9FEFA9E7B4EC8093A6
:10564000240590932505A0932605B0932705BB203C
:1056500009F45CC040906502509066026090670259
:10566000709068028090690290906A02A0906B022C
:10567000B0906C02C0906D02D0906E02E0906F020C
:10568000F090700281E046DF112309F43FC02091C1
:105690006502309166024091670250916802C30131
:1056A000B2010F94BC0381111CC02091690230919A
:1056B0006A0240916B0250916C02C501B4010F94D3
:1056C000BC0381110EC020916D0230916E02409199
:1056D0006F0250917002C701B6010F94BC0388237A
:1056E000A9F0DF91CF911F91FF90EF90DF90CF90C5
:1056F000BF90AF909F908F907F906F905F904F90F2
:105700000C94569F60E070E0CB018DCFDF91CF917C
:105710001F91FF90EF90DF90CF90BF90AF909F9040
:105720008F907F906F905F904F9008954F925F920F
:105730006F927F928F929F92AF92BF92CF92DF92A1
:10574000EF92FF920F931F93CF93DF93EC01209181
:105750006504309166044091670450916804688143
:1057600079818A819B810F94870A6B017C0120914A
:10577000690430916A0440916B0450916C046C810F
:105780007D818E819F810F94870A4B015C01A70167
:105790009601609155047091560480915704909140
:1057A00058040F94BC03882309F459C0C0925504CF
:1057B000D0925604E0925704F092580420915D0470
:1057C00030915E0440915F0450916004C701B601BE
:1057D0000F9421042B013C010F94FD0B6B017C0104
:1057E00020E030E0A9010F94BC0387FD79C020E0E0
:1057F00030E040E050E4C701B6010F94AF0C18163A
:105800002CF4C12CD12CE12CC0E4FC2EA701960174
:10581000C301B2010F94870A2B013C0120E030E064
:10582000A9010F94BC0387FD5FC040924D045092C4
:105830004E0460924F0470925004C701B6010F9459
:10584000CC0B60934B04062E000C770B6F5F7F4FE1
:105850006230710514F062E070E0609349041091C9
:105860004704D0914B04A5019401609159047091B3
:105870005A0480915B0490915C040F94BC038111E5
:105880003CC01D1393C020912F04309130044091EF
:1058900031045091320460914D0470914E04809116
:1058A0004F04909150040F942104209133043091BF
:1058B000340440913504509136040F94880ADF91E6
:1058C000CF911F910F91FF90EF90DF90CF90BF90FD
:1058D000AF909F908F907F906F905F904F900895C2
:1058E000C12CD12C760192CF10924D0410924E040F
:1058F00010924F0410925004A0CF809259049092BD
:105900005A04A0925B04B0925C042091610430912F
:1059100062044091630450916404C501B4010F9482
:1059200021044B015C010F94FD0B6B017C0120E015
:1059300030E0A9010F94BC0387FD05C120E030E0F1
:1059400040E050E4C701B6010F94AF0C18162CF4D8
:10595000C12CD12CE12CB0E4FB2EA7019601C5018E
:10596000B4010F94870A4B015C0120E030E0A901EB
:105970000F94BC0387FDEBC08092510490925204B7
:10598000A0925304B0925404C701B6010F94CC0BFB
:1059900060934C04062E000C770B6F5F7F4F6230D4
:1059A000710514F062E070E060934A04C0914C0409
:1059B0001D1305C0809148048C1709F479C08091AB
:1059C0004B0490914C0490934804809347048D2F8E
:1059D000DD0F990B0C2E000CDD0BAC01440F551F95
:1059E000840F951FFC01EC0FFD1FEE0FFF1FEE0F44
:1059F000FF1FED5BFA4F208131814281538120935B
:105A00004304309344044093450450934604E0918A
:105A10004A040E2FEE0F110BDC01A00FB11FAA0FCD
:105A2000BB1FAA0FBB1FAD5BBA4F6D917D918D91CE
:105A30009C910F94870A60933F0470934004809375
:105A400041049093420480914904282F880F330B1E
:105A5000C901880F991F820F931FC80FD91FCC0F40
:105A6000DD1FCC0FDD1FCD5BDA4F288139814A81E4
:105A70005B8120933B0430933C0440933D0450935E
:105A80003E04FC01E00FF11FEE0FFF1FEE0FFF1FA2
:105A9000ED5BFA4F60817181828193810F94870A57
:105AA00060933704709338048093390490933A04D8
:105AB0008090510490905204A0905304B0905404EC
:105AC00020913F04309140044091410450914204A0
:105AD000C501B4010F942104209143043091440482
